{
  "contractName": "reg",
  "abi": [
    {
      "constant": true,
      "inputs": [
        {
          "name": "",
          "type": "uint256"
        }
      ],
      "name": "apropid",
      "outputs": [
        {
          "name": "",
          "type": "string"
        }
      ],
      "payable": false,
      "stateMutability": "view",
      "type": "function",
      "signature": "0xb72f9cc6"
    },
    {
      "constant": false,
      "inputs": [
        {
          "name": "addr",
          "type": "address"
        },
        {
          "name": "ownername",
          "type": "string"
        },
        {
          "name": "ownerid",
          "type": "string"
        },
        {
          "name": "passcode",
          "type": "string"
        },
        {
          "name": "proptype",
          "type": "string"
        },
        {
          "name": "propaddress",
          "type": "string"
        },
        {
          "name": "dimension",
          "type": "string"
        },
        {
          "name": "propid",
          "type": "string"
        }
      ],
      "name": "addproperty",
      "outputs": [],
      "payable": false,
      "stateMutability": "nonpayable",
      "type": "function",
      "signature": "0xd40dd7c8"
    },
    {
      "constant": true,
      "inputs": [
        {
          "name": "propid",
          "type": "string"
        }
      ],
      "name": "propid_search",
      "outputs": [
        {
          "name": "",
          "type": "string"
        },
        {
          "name": "",
          "type": "string"
        },
        {
          "name": "",
          "type": "string"
        },
        {
          "name": "",
          "type": "string"
        },
        {
          "name": "",
          "type": "string"
        },
        {
          "name": "",
          "type": "string"
        },
        {
          "name": "",
          "type": "string"
        }
      ],
      "payable": false,
      "stateMutability": "view",
      "type": "function",
      "signature": "0xb0933542"
    },
    {
      "constant": false,
      "inputs": [
        {
          "name": "propid",
          "type": "string"
        },
        {
          "name": "ownername",
          "type": "string"
        },
        {
          "name": "ownerid",
          "type": "string"
        }
      ],
      "name": "transfer",
      "outputs": [],
      "payable": false,
      "stateMutability": "nonpayable",
      "type": "function",
      "signature": "0xb8510edb"
    }
  ],
  "bytecode": "0x608060405234801561001057600080fd5b50611a6a806100206000396000f3fe608060405260043610610062576000357c0100000000000000000000000000000000000000000000000000000000900463ffffffff168063b093354214610067578063b72f9cc614610430578063b8510edb146104e4578063d40dd7c8146106da575b600080fd5b34801561007357600080fd5b5061012d6004803603602081101561008a57600080fd5b81019080803590602001906401000000008111156100a757600080fd5b8201836020820111156100b957600080fd5b803590602001918460018302840111640100000000831117156100db57600080fd5b91908080601f016020809104026020016040519081016040528093929190818152602001838380828437600081840152601f19601f820116905080830192505050505050509192919290505050610b4d565b604051808060200180602001806020018060200180602001806020018060200188810388528f818151815260200191508051906020019080838360005b8381101561018557808201518184015260208101905061016a565b50505050905090810190601f1680156101b25780820380516001836020036101000a031916815260200191505b5088810387528e818151815260200191508051906020019080838360005b838110156101eb5780820151818401526020810190506101d0565b50505050905090810190601f1680156102185780820380516001836020036101000a031916815260200191505b5088810386528d818151815260200191508051906020019080838360005b83811015610251578082015181840152602081019050610236565b50505050905090810190601f16801561027e5780820380516001836020036101000a031916815260200191505b5088810385528c818151815260200191508051906020019080838360005b838110156102b757808201518184015260208101905061029c565b50505050905090810190601f1680156102e45780820380516001836020036101000a031916815260200191505b5088810384528b818151815260200191508051906020019080838360005b8381101561031d578082015181840152602081019050610302565b50505050905090810190601f16801561034a5780820380516001836020036101000a031916815260200191505b5088810383528a818151815260200191508051906020019080838360005b83811015610383578082015181840152602081019050610368565b50505050905090810190601f1680156103b05780820380516001836020036101000a031916815260200191505b50888103825289818151815260200191508051906020019080838360005b838110156103e95780820151818401526020810190506103ce565b50505050905090810190601f1680156104165780820380516001836020036101000a031916815260200191505b509e50505050505050505050505050505060405180910390f35b34801561043c57600080fd5b506104696004803603602081101561045357600080fd5b81019080803590602001909291905050506112b7565b6040518080602001828103825283818151815260200191508051906020019080838360005b838110156104a957808201518184015260208101905061048e565b50505050905090810190601f1680156104d65780820380516001836020036101000a031916815260200191505b509250505060405180910390f35b3480156104f057600080fd5b506106d86004803603606081101561050757600080fd5b810190808035906020019064010000000081111561052457600080fd5b82018360208201111561053657600080fd5b8035906020019184600183028401116401000000008311171561055857600080fd5b91908080601f016020809104026020016040519081016040528093929190818152602001838380828437600081840152601f19601f820116905080830192505050505050509192919290803590602001906401000000008111156105bb57600080fd5b8201836020820111156105cd57600080fd5b803590602001918460018302840111640100000000831117156105ef57600080fd5b91908080601f016020809104026020016040519081016040528093929190818152602001838380828437600081840152601f19601f8201169050808301925050505050505091929192908035906020019064010000000081111561065257600080fd5b82018360208201111561066457600080fd5b8035906020019184600183028401116401000000008311171561068657600080fd5b91908080601f016020809104026020016040519081016040528093929190818152602001838380828437600081840152601f19601f820116905080830192505050505050509192919290505050611372565b005b3480156106e657600080fd5b50610b4b60048036036101008110156106fe57600080fd5b81019080803573ffffffffffffffffffffffffffffffffffffffff1690602001909291908035906020019064010000000081111561073b57600080fd5b82018360208201111561074d57600080fd5b8035906020019184600183028401116401000000008311171561076f57600080fd5b91908080601f016020809104026020016040519081016040528093929190818152602001838380828437600081840152601f19601f820116905080830192505050505050509192919290803590602001906401000000008111156107d257600080fd5b8201836020820111156107e457600080fd5b8035906020019184600183028401116401000000008311171561080657600080fd5b91908080601f016020809104026020016040519081016040528093929190818152602001838380828437600081840152601f19601f8201169050808301925050505050505091929192908035906020019064010000000081111561086957600080fd5b82018360208201111561087b57600080fd5b8035906020019184600183028401116401000000008311171561089d57600080fd5b91908080601f016020809104026020016040519081016040528093929190818152602001838380828437600081840152601f19601f8201169050808301925050505050505091929192908035906020019064010000000081111561090057600080fd5b82018360208201111561091257600080fd5b8035906020019184600183028401116401000000008311171561093457600080fd5b91908080601f016020809104026020016040519081016040528093929190818152602001838380828437600081840152601f19601f8201169050808301925050505050505091929192908035906020019064010000000081111561099757600080fd5b8201836020820111156109a957600080fd5b803590602001918460018302840111640100000000831117156109cb57600080fd5b91908080601f016020809104026020016040519081016040528093929190818152602001838380828437600081840152601f19601f82011690508083019250505050505050919291929080359060200190640100000000811115610a2e57600080fd5b820183602082011115610a4057600080fd5b80359060200191846001830284011164010000000083111715610a6257600080fd5b91908080601f016020809104026020016040519081016040528093929190818152602001838380828437600081840152601f19601f82011690508083019250505050505050919291929080359060200190640100000000811115610ac557600080fd5b820183602082011115610ad757600080fd5b80359060200191846001830284011164010000000083111715610af957600080fd5b91908080601f016020809104026020016040519081016040528093929190818152602001838380828437600081840152601f19601f82011690508083019250505050505050919291929050505061150e565b005b60608060608060608060606000886040518082805190602001908083835b602083101515610b905780518252602082019150602081019050602083039250610b6b565b6001836020036101000a03801982511681845116808217855250505050505090500191505090815260200160405180910390206000016000896040518082805190602001908083835b602083101515610bfe5780518252602082019150602081019050602083039250610bd9565b6001836020036101000a038019825116818451168082178552505050505050905001915050908152602001604051809103902060010160008a6040518082805190602001908083835b602083101515610c6c5780518252602082019150602081019050602083039250610c47565b6001836020036101000a038019825116818451168082178552505050505050905001915050908152602001604051809103902060020160008b6040518082805190602001908083835b602083101515610cda5780518252602082019150602081019050602083039250610cb5565b6001836020036101000a038019825116818451168082178552505050505050905001915050908152602001604051809103902060030160008c6040518082805190602001908083835b602083101515610d485780518252602082019150602081019050602083039250610d23565b6001836020036101000a038019825116818451168082178552505050505050905001915050908152602001604051809103902060040160008d6040518082805190602001908083835b602083101515610db65780518252602082019150602081019050602083039250610d91565b6001836020036101000a038019825116818451168082178552505050505050905001915050908152602001604051809103902060050160008e6040518082805190602001908083835b602083101515610e245780518252602082019150602081019050602083039250610dff565b6001836020036101000a0380198251168184511680821785525050505050509050019150509081526020016040518091039020600601868054600181600116156101000203166002900480601f016020809104026020016040519081016040528092919081815260200182805460018160011615610100020316600290048015610eef5780601f10610ec457610100808354040283529160200191610eef565b820191906000526020600020905b815481529060010190602001808311610ed257829003601f168201915b50505050509650858054600181600116156101000203166002900480601f016020809104026020016040519081016040528092919081815260200182805460018160011615610100020316600290048015610f8b5780601f10610f6057610100808354040283529160200191610f8b565b820191906000526020600020905b815481529060010190602001808311610f6e57829003601f168201915b50505050509550848054600181600116156101000203166002900480601f0160208091040260200160405190810160405280929190818152602001828054600181600116156101000203166002900480156110275780601f10610ffc57610100808354040283529160200191611027565b820191906000526020600020905b81548152906001019060200180831161100a57829003601f168201915b50505050509450838054600181600116156101000203166002900480601f0160208091040260200160405190810160405280929190818152602001828054600181600116156101000203166002900480156110c35780601f10611098576101008083540402835291602001916110c3565b820191906000526020600020905b8154815290600101906020018083116110a657829003601f168201915b50505050509350828054600181600116156101000203166002900480601f01602080910402602001604051908101604052809291908181526020018280546001816001161561010002031660029004801561115f5780601f106111345761010080835404028352916020019161115f565b820191906000526020600020905b81548152906001019060200180831161114257829003601f168201915b50505050509250818054600181600116156101000203166002900480601f0160208091040260200160405190810160405280929190818152602001828054600181600116156101000203166002900480156111fb5780601f106111d0576101008083540402835291602001916111fb565b820191906000526020600020905b8154815290600101906020018083116111de57829003601f168201915b50505050509150808054600181600116156101000203166002900480601f0160208091040260200160405190810160405280929190818152602001828054600181600116156101000203166002900480156112975780601f1061126c57610100808354040283529160200191611297565b820191906000526020600020905b81548152906001019060200180831161127a57829003601f168201915b505050505090509650965096509650965096509650919395979092949650565b6001818154811015156112c657fe5b906000526020600020016000915090508054600181600116156101000203166002900480601f01602080910402602001604051908101604052809291908181526020018280546001816001161561010002031660029004801561136a5780601f1061133f5761010080835404028352916020019161136a565b820191906000526020600020905b81548152906001019060200180831161134d57829003601f168201915b505050505081565b600080846040518082805190602001908083835b6020831015156113ab5780518252602082019150602081019050602083039250611386565b6001836020036101000a03801982511681845116808217855250505050505090500191505090815260200160405180910390206006018054600181600116156101000203166002900490501415151561140357600080fd5b806000846040518082805190602001908083835b60208310151561143c5780518252602082019150602081019050602083039250611417565b6001836020036101000a03801982511681845116808217855250505050505090500191505090815260200160405180910390206001019080519060200190611485929190611999565b50816000846040518082805190602001908083835b6020831015156114bf578051825260208201915060208101905060208303925061149a565b6001836020036101000a03801982511681845116808217855250505050505090500191505090815260200160405180910390206000019080519060200190611508929190611999565b50505050565b856000826040518082805190602001908083835b6020831015156115475780518252602082019150602081019050602083039250611522565b6001836020036101000a03801982511681845116808217855250505050505090500191505090815260200160405180910390206001019080519060200190611590929190611999565b50866000826040518082805190602001908083835b6020831015156115ca57805182526020820191506020810190506020830392506115a5565b6001836020036101000a03801982511681845116808217855250505050505090500191505090815260200160405180910390206000019080519060200190611613929190611999565b50846000826040518082805190602001908083835b60208310151561164d5780518252602082019150602081019050602083039250611628565b6001836020036101000a03801982511681845116808217855250505050505090500191505090815260200160405180910390206002019080519060200190611696929190611999565b50836000826040518082805190602001908083835b6020831015156116d057805182526020820191506020810190506020830392506116ab565b6001836020036101000a03801982511681845116808217855250505050505090500191505090815260200160405180910390206003019080519060200190611719929190611999565b50826000826040518082805190602001908083835b602083101515611753578051825260208201915060208101905060208303925061172e565b6001836020036101000a0380198251168184511680821785525050505050509050019150509081526020016040518091039020600401908051906020019061179c929190611999565b50816000826040518082805190602001908083835b6020831015156117d657805182526020820191506020810190506020830392506117b1565b6001836020036101000a0380198251168184511680821785525050505050509050019150509081526020016040518091039020600501908051906020019061181f929190611999565b50806000826040518082805190602001908083835b6020831015156118595780518252602082019150602081019050602083039250611834565b6001836020036101000a038019825116818451168082178552505050505050905001915050908152602001604051809103902060060190805190602001906118a2929190611999565b50876000826040518082805190602001908083835b6020831015156118dc57805182526020820191506020810190506020830392506118b7565b6001836020036101000a038019825116818451168082178552505050505050905001915050908152602001604051809103902060070160006101000a81548173ffffffffffffffffffffffffffffffffffffffff021916908373ffffffffffffffffffffffffffffffffffffffff160217905550600181908060018154018082558091505090600182039060005260206000200160009091929091909150908051906020019061198d929190611999565b50505050505050505050565b828054600181600116156101000203166002900490600052602060002090601f016020900481019282601f106119da57805160ff1916838001178555611a08565b82800160010185558215611a08579182015b82811115611a075782518255916020019190600101906119ec565b5b509050611a159190611a19565b5090565b611a3b91905b80821115611a37576000816000905550600101611a1f565b5090565b9056fea165627a7a723058201b61977dfc353d8ef3454001d7679b8021922d6c1e4f51d9566de19f57a6d5390029",
  "source": "pragma solidity 0.5.0;\r\ncontract reg {\r\n\r\n    struct detail{\r\n        string ownernam;\r\n        string owneri;\r\n        string passcod;\r\n        string proptyp;\r\n        string propaddres;\r\n        string dimensio;\r\n        string propi;\r\n        address add;\r\n    }\r\n\r\n    mapping(string => detail) detailprop;\r\n    string[] public apropid;    \r\n\r\n    function addproperty(address addr, string memory ownername, string memory ownerid, string memory passcode, string memory proptype, \r\n        string memory propaddress, string memory dimension, string memory propid) public {\r\n        //var prop = detailprop[propid];\r\n        detailprop[propid].owneri=ownerid;\r\n        detailprop[propid].ownernam=ownername;\r\n        detailprop[propid].passcod=passcode;\r\n        detailprop[propid].proptyp=proptype;\r\n        detailprop[propid].propaddres=propaddress;\r\n        detailprop[propid].dimensio=dimension;\r\n        detailprop[propid].propi=propid;\r\n        detailprop[propid].add=addr;\r\n\r\n        apropid.push(propid);\r\n    }\r\n\r\n    function propid_search(string memory propid) public view returns(string memory,string memory,string memory,string memory,string memory,string memory,string memory){\r\n        return (detailprop[propid].ownernam,detailprop[propid].owneri,detailprop[propid].passcod,detailprop[propid].proptyp,detailprop[propid].propaddres\r\n        ,detailprop[propid].dimensio,detailprop[propid].propi);\r\n    }\r\n\r\n    /*function add_search(string memory add) public view returns(string memory,string memory,string memory,string memory,string memory,string memory,string memory){\r\n        if()\r\n        return (detailprop[propid].ownernam,detailprop[propid].owneri,detailprop[propid].passcod,detailprop[propid].proptyp,detailprop[propid].propaddres\r\n        ,detailprop[propid].dimensio,detailprop[propid].propi);\r\n    }*/\r\n\r\n    function transfer(string memory propid, string memory ownername, string memory ownerid ) public {\r\n        require(bytes(detailprop[propid].propi).length!=0);\r\n        detailprop[propid].owneri=ownerid;\r\n        detailprop[propid].ownernam=ownername;}\r\n     \r\n}",
  "sourcePath": "C:/Users/SHIVAM/Desktop/hired_in_bosch/property/contracts/reg.sol",
  "compiler": {
    "name": "solc",
    "version": "0.5.0+commit.1d4f565a.Emscripten.clang"
  },
  "schemaVersion": "3.0.1",
  "updatedAt": "2019-03-18T19:36:46.221Z",
  "devdoc": {
    "methods": {}
  },
  "userdoc": {
    "methods": {}
  }
}